:100000000C9456000C9468000C9468000C946800E2
:100010000C9468000C9468000C9468000C946800C0
:100020000C9468000C9468000C9468000C946800B0
:100030000C9468000C9468000C9468000C946800A0
:100040000C9468000C9468000C9468000C94680090
:100050000C9468000C9468000C9468000C94970051
:100060000C9468000C9468000C9468000C94680070
:100070000C9468000C9468000C9468000C94680060
:100080000C9468000C9468000C9468000C94680050
:100090000C9468000C9468000C9468000C94680040
:1000A0000C9468000C9468000C94680011241FBE26
:1000B000CFEFDAE0DEBFCDBF21E0A0E0B1E001C0CC
:1000C0001D92A531B207E1F70E94D5020C94EE0211
:1000D0000C940000CF93DF9300D000D0CDB7DEB7F3
:1000E00069837A838B839C8389819A81AB81BC816C
:1000F0008093000190930101A0930201B09303014A
:10010000109204010000809104018823E1F3109211
:1001100000011092010110920201109203010000EF
:100120000F900F900F900F90DF91CF9108951F9235
:100130000F9200905F000F9211248F939F93AF93C3
:10014000BF93EF93FF93CF93DF93CDB7DEB786E4F2
:1001500090E0FC0110828091000190910101A0913A
:100160000201B0910301892B8A2B8B2B11F1809115
:10017000000190910101A0910201B091030101974A
:10018000A109B1098093000190930101A09302019C
:10019000B09303018091000190910101A0910201AF
:1001A000B0910301892B8A2B8B2B19F481E080936A
:1001B00004010000DF91CF91FF91EF91BF91AF91CA
:1001C0009F918F910F9000925F000F901F90189554
:1001D000CF93DF93CDB7DEB7F89482EE90E0FC01C9
:1001E00010828AE290E020E2FC0120838BE290E022
:1001F0002BE230E0F90120812360FC01208389EBB0
:1002000090E0FC01108288EB90E02CE0FC01208360
:1002100084E490E0FC01108285E490E023E0FC019E
:1002200020838EE690E021E0FC01208386E490E0CC
:10023000FC01108278940000DF91CF910895CF9354
:10024000DF931F92CDB7DEB789838BEB90E02981D6
:10025000FC0120838CEB90E024E8FC01208300006B
:100260008CEB90E0FC0180818823D4F700000F9094
:10027000DF91CF910895CF93DF931F92CDB7DEB773
:1002800089838981882369F08CEB90E024ECFC0160
:10029000208300008CEB90E0FC0180818823D4F760
:1002A0000CC08CEB90E024E8FC01208300008CEB78
:1002B00090E0FC0180818823D4F78BEB90E0FC0177
:1002C00080810F90DF91CF910895CF93DF9300D07D
:1002D000CDB7DEB78A838CEB90E024EAFC01208363
:1002E00000008CEB90E0FC0180818823D4F780ED46
:1002F0000E941F018A810E941F018CEB90E024EA7A
:10030000FC01208300008CEB90E0FC0180818823BD
:10031000D4F781ED0E941F0180E00E943B01898398
:100320008CEB90E024E9FC01208362E370E080E044
:1003300090E00E946A0089810F900F90DF91CF9129
:100340000895CF93DF9300D0CDB7DEB789836A835A
:100350008CEB90E024EAFC01208300008CEB90E021
:10036000FC0180818823D4F780ED0E941F018981E0
:100370000E941F018A810E941F018CEB90E024E9FA
:10038000FC01208362E370E080E090E00E946A005C
:1003900000000F900F90DF91CF910895CF93DF93DE
:1003A000CDB7DEB760E88BE60E94A10162E370E0A2
:1003B00080E090E00E946A0063E08BE60E94A10169
:1003C00062E370E080E090E00E946A0066E08AE10B
:1003D0000E94A10168E18BE10E94A10168E18CE12A
:1003E0000E94A1010000DF91CF910895CF93DF9388
:1003F000CDB7DEB78CEB90E024EAFC01208300004F
:100400008CEB90E0FC0180818823D4F780ED0E9482
:100410001F018BE30E941F018CEB90E024EAFC019A
:10042000208300008CEB90E0FC0180818823D4F7CE
:1004300081ED0E941F0181E00E943B018093050134
:1004400081E00E943B018093060181E00E943B0114
:100450008093070181E00E943B018093080181E0C5
:100460000E943B018093090181E00E943B0180933F
:100470000A0181E00E943B0180930B0181E00E9410
:100480003B0180930C0181E00E943B0180930D01B0
:1004900081E00E943B0180930E0181E00E943B01BC
:1004A00080930F0181E00E943B018093100181E065
:1004B0000E943B018093110180E00E943B018093E8
:1004C00012018CEB90E024E9FC01208365E070E0F0
:1004D00080E090E00E946A000000DF91CF910895D3
:1004E000CF93DF9300D000D01F92CDB7DEB78B83C0
:1004F0006C834D838B81882F90E0382F22278C814D
:10050000882F90E0822B932B9A83898389819A810B
:100510008130904880F089819A81809590952D81D5
:10052000022E000C330B02C0969587952A95E2F7B0
:100530009A8389830DC08D81282F880F330B898181
:100540009A8102C0969587952A95E2F79A838983C6
:100550008BE290E02BE230E0F901308120E22327AA
:10056000FC01208389819A81893E934020F088EEA6
:1005700093E09A83898389819A81059720F485E0A5
:1005800090E09A83898389819A81CC01A0E0B0E0D0
:10059000BC01CD010E946A0000000F900F900F90E7
:1005A0000F900F90DF91CF910895CF93DF93CDB748
:1005B000DEB70E94E8000E94CE010E94F6019091F1
:1005C00006018091050143E0692F0E9470026AE0F4
:1005D00070E080E090E00E946A00EFCFF894FFCFD7
:00000001FF
