:100000000C9489000C949D000C949D000C949D0010
:100010000C949D000C949D000C949D000C949D00EC
:100020000C949D000C949D000C949D000C949D00DC
:100030000C949D000C949D000C949D000C949D00CC
:100040000C949D000C949D000C949D000C949D00BC
:100050000C949D000C949D000C949D000C94BA008F
:100060000C949D000C949D000C949D000C949D009C
:100070000C949D000C949D000C949D000C949D008C
:100080000C949D000C949D000C949D000C949D007C
:100090000C949D000C949D000C949D000C949D006C
:1000A0000C949D000C949D000C949D000C949D005C
:1000B0000C949D000C949D000C949D000C949D004C
:1000C0000C949D000C949D000C949D000C949D003C
:1000D0000C949D000C949D000C949D000C949D002C
:1000E0000C949D00084AD73B3BCE016E84BCBFFDFB
:1000F000C12F3D6C74319ABD56833DDA3D00C77FF8
:1001000011BED9E4BB4C3E916BAAAABE0000008090
:100110003F0011241FBECFEFD1E2DEBFCDBF00E014
:100120000CBF22E0A0E0B2E001C01D92A731B207EF
:10013000E1F70E94FC020C9439070C940000CF9365
:10014000DF931F921F92CDB7DEB79A83898389818F
:100150009A819093010280930002109202020000A3
:10016000809102028823E1F300000F900F90DF914D
:10017000CF9108951F920F9200905F000F9211246B
:100180008F939F93CF93DF93CDB7DEB7809100021B
:1001900090910102892B91F08091000290910102CF
:1001A0000197909301028093000280910002909148
:1001B0000102892B19F481E08093020280910302ED
:1001C0009091040201969093040280930302000030
:1001D000DF91CF919F918F910F9000925F000F90D0
:1001E0001F901895CF93DF931F92CDB7DEB7898309
:1001F0008BEB90E02981FC0120838CEB90E024E8DC
:10020000FC01208300008CEB90E0FC0180818823BE
:10021000D4F700000F90DF91CF910895CF93DF9333
:100220001F92CDB7DEB789838981882369F08CEB73
:1002300090E024ECFC01208300008CEB90E0FC01BA
:1002400080818823D4F70CC08CEB90E024E8FC017B
:10025000208300008CEB90E0FC0180818823D4F7A0
:100260008BEB90E0FC0180810F90DF91CF9108959E
:10027000CF93DF931F921F92CDB7DEB78A838CEBAB
:1002800090E024EAFC01208300008CEB90E0FC016C
:1002900080818823D4F780ED0E94F2008A810E9439
:1002A000F2008CEB90E024EAFC01208300008CEB50
:1002B00090E0FC0180818823D4F781ED0E94F20058
:1002C00080E00E940E0189838CEB90E024E9FC0120
:1002D000208382E390E00E949F0089810F900F901D
:1002E000DF91CF910895CF93DF931F921F92CDB7E7
:1002F000DEB789836A838CEB90E024EAFC012083DB
:1003000000008CEB90E0FC0180818823D4F780ED25
:100310000E94F20089810E94F2008A810E94F2000C
:100320008CEB90E024E9FC01208382E390E00E94C2
:100330009F0000000F900F90DF91CF910895CF9311
:10034000DF93CDB7DEB78CEB90E024EAFC0120838D
:1003500000008CEB90E0FC0180818823D4F780EDD5
:100360000E94F2008BE30E94F2008CEB90E024EA02
:10037000FC01208300008CEB90E0FC01808188234D
:10038000D4F781ED0E94F20081E00E940E0180937B
:10039000070281E00E940E018093080281E00E9422
:1003A0000E018093090281E00E940E0180930A02EF
:1003B00081E00E940E0180930B0281E00E940E01F9
:1003C00080930C0281E00E940E0180930D0281E077
:1003D0000E940E0180930E0281E00E940E01809324
:1003E0000F0281E00E940E018093100281E00E94C2
:1003F0000E018093110281E00E940E01809312028F
:1004000081E00E940E018093130280E00E940E01A1
:10041000809314028CEB90E024E9FC01208385E0BA
:1004200090E00E949F000000DF91CF910895CF934C
:10043000DF9300D01F92CDB7DEB78B836C838B81A7
:10044000882F90E0382F22278C81882F90E0822BF4
:10045000932B9A83898389819A81092E000CAA0B98
:10046000BB0BBC01CD010E94E405DC01CB01BC014A
:10047000CD010E94AC05DC01CB010F900F900F90D5
:100480000F90DF91CF910895CF93DF93CDB7DEB773
:1004900085E290E025E230E0F90120812068FC014E
:1004A00020830000DF91CF910895CF93DF93CDB7E4
:1004B000DEB788E290E028E230E0F9012081206494
:1004C000FC0120830000DF91CF910895CF93DF934B
:1004D000CDB7DEB788E290E028E230E0F901208174
:1004E0002068FC0120830000DF91CF910895CF9315
:1004F000DF93CDB7DEB785E290E025E230E0F90189
:1005000020812F77FC0120830000DF91CF91089597
:10051000CF93DF93CDB7DEB788E290E028E230E0FA
:10052000F90120812F7BFC0120830000DF91CF9116
:100530000895CF93DF93CDB7DEB788E290E028E24D
:1005400030E0F90120812F77FC0120830000DF914A
:10055000CF910895CF93DF931F921F92CDB7DEB74F
:100560009A8389838AE990E029813A81220F331F97
:10057000FC013183208300000F900F90DF91CF9119
:100580000895CF93DF931F921F92CDB7DEB79A8362
:1005900089838CE990E029813A81220F331FFC0185
:1005A0003183208300000F900F90DF91CF91089549
:1005B000CF93DF93CDB7DEB760E88BE60E9473017F
:1005C00082E390E00E949F0063E08BE60E9473014B
:1005D00082E390E00E949F0064E08AE10E94730140
:1005E00068E18BE10E94730168E18CE10E94730174
:1005F0000000DF91CF910895CF92DF92EF92FF92AA
:10060000CF93DF93CDB7DEB7A8970FB6F894DEBFD0
:100610000FBECDBF8DE290E02DE230E0F9012081E8
:100620002063FC0120838EE290E02EE230E0F901AD
:1006300020812063FC01208384E290E024E230E00A
:10064000F90120812068FC01208387E290E027E205
:1006500030E0F9012081206CFC0120838BE290E0E6
:100660002BE230E0F90120812360FC01208389EB3B
:1006700090E0FC01108288EB90E02CE0FC012083EC
:1006800084E490E0FC01108285E490E023E0FC012A
:1006900020838EE690E021E0FC01208386E490E058
:1006A000FC01108280E990E02BE2FC01208381E9CB
:1006B00090E02AE1FC01208381E790E0FC011082B8
:1006C00084E990E0FC011182108288E990E028E83A
:1006D00033E1FC01318320830E9477020E9488026B
:1006E0000E949902789484E893E00E94AA0284E828
:1006F00093E00E94C10288EE93E00E949F000E9456
:10070000D8021D821E821F82188689E695E8A5EA16
:10071000B1E489879A87AB87BC8780E090E8ABEB30
:10072000B4E48D879E87AF87B88B80E090E0A8EC1B
:10073000B2E4898B9A8BAB8BBC8B1D8A1E8A1F8A75
:10074000188E0E949F0190910A0280910902692FE0
:100750000E941702092E000CAA0BBB0BBC01CD0195
:100760000E94E405DC01CB01898F9A8FAB8FBC8F8F
:1007700090910C0280910B02692F0E941702092EA2
:10078000000CAA0BBB0BBC01CD010E94E405DC01EF
:10079000CB018D8F9E8FAF8FB8A38D8D9E8DAF8D2A
:1007A000B8A1B058298D3A8D4B8D5C8DBC01CD011F
:1007B0000E943A05DC01CB01BC01CD010E940B0572
:1007C000DC01CB0189A39AA3ABA3BCA39091100237
:1007D00080910F02692F0E941702092E000CAA0BAC
:1007E000BB0BBC01CD010E94E405DC01CB0120E084
:1007F00030E04AEF54E4BC01CD010E94A406DC01C4
:10080000CB0120E030E040E057E4BC01CD010E9484
:100810003A05DC01CB0125E33AEF4EE85CE3BC018D
:10082000CD010E94A406DC01CB018DA39EA3AFA342
:10083000B8A72D893E894F89588D69A17AA18BA1CE
:100840009CA10E949E04DC01CB012D813E814F8141
:100850005885BC01CD010E94A406DC01CB016C01CE
:100860007D0129853A854B855C856DA17EA18FA18F
:1008700098A50E94A406DC01CB019C01AD01C70133
:10088000B6010E949F04DC01CB0189839A83AB836C
:10089000BC8329893A894B895C8969817A818B81FA
:1008A0009C810E949706181644F489899A89AB891D
:1008B000BC8989839A83AB83BC8389899A89AB89F4
:1008C000BC89B05829813A814B815C81BC01CD0142
:1008D0000E94970618164CF489899A89AB89BC89BD
:1008E000B05889839A83AB83BC8329813A814B8139
:1008F0005C816D857E858F8598890E949F04DC01CF
:10090000CB01BC01CD010E94B305DC01CB010E94EB
:10091000AA0229813A814B815C816D857E858F8514
:1009200098890E949E04DC01CB01BC01CD010E948C
:10093000B305DC01CB010E94C10203CF5058BB2795
:10094000AA270E94B6040C945D060E944F0638F058
:100950000E94560620F039F49F3F19F426F40C94B7
:1009600025060EF4E095E7FB0C941F06E92F0E9484
:100970006E0658F3BA17620773078407950720F0CD
:1009800079F4A6F50C9490060EF4E0950B2EBA2F90
:10099000A02D0B01B90190010C01CA01A001112485
:1009A000FF27591B99F0593F50F4503E68F11A1631
:1009B000F040A22F232F342F4427585FF3CF4695C2
:1009C00037952795A795F0405395C9F77EF41F16E4
:1009D000BA0B620B730B840BBAF09150A1F0FF0FAE
:1009E000BB1F661F771F881FC2F70EC0BA0F621F9A
:1009F000731F841F48F4879577956795B795F7958A
:100A00009E3F08F0B0CF9395880F08F09927EE0F1E
:100A1000979587950895DF93DD27B92FBF7740E835
:100A20005FE31616170648075B0718F4D92F0E94D4
:100A30009C069F938F937F936F930E941107E4EE20
:100A4000F0E00E9428060E945D062F913F914F9191
:100A50005F910E94B706DD2351F09058A2EA2AED7B
:100A60003FE049EC5FE3D0785D270E94B604DF9158
:100A70000C945D060E944E050C945D060E9456067D
:100A800058F00E944F0640F029F45F3F29F00C9483
:100A90001F0651110C9491060C9425060E946E06B7
:100AA00068F39923B1F3552391F3951B550BBB279D
:100AB000AA2762177307840738F09F5F5F4F220FE2
:100AC000331F441FAA1FA9F335D00E2E3AF0E0E8D9
:100AD00032D091505040E695001CCAF72BD0FE2F23
:100AE00029D0660F771F881FBB1F261737074807B7
:100AF000AB07B0E809F0BB0B802DBF01FF2793586F
:100B00005F4F3AF09E3F510578F00C941F060C940D
:100B100091065F3FE4F3983ED4F386957795679509
:100B2000B795F7959F5FC9F7880F911D96958795A3
:100B300097F90895E1E0660F771F881FBB1F6217C2
:100B400073078407BA0720F0621B730B840BBA0B80
:100B5000EE1F88F7E09508950E94B3056894B111DF
:100B60000C94910608950E94760688F09F5798F09D
:100B7000B92F9927B751B0F0E1F0660F771F881FA2
:100B8000991F1AF0BA95C9F714C0B13091F00E94BC
:100B90009006B1E008950C949006672F782F88276F
:100BA000B85F39F0B93FCCF3869577956795B395E3
:100BB000D9F73EF490958095709561957F4F8F4F52
:100BC0009F4F0895E89409C097FB3EF49095809557
:100BD000709561957F4F8F4F9F4F9923A9F0F92F03
:100BE00096E9BB279395F695879577956795B79581
:100BF000F111F8CFFAF4BB0F11F460FF1BC06F5F67
:100C00007F4F8F4F9F4F16C0882311F096E911C078
:100C1000772321F09EE8872F762F05C0662371F099
:100C200096E8862F70E060E02AF09A95660F771FAD
:100C3000881FDAF7880F9695879597F9089597F9A1
:100C40009F6780E870E060E008959FEF80EC089572
:100C5000DF93CF931F930F93FF92EF92DF927B016D
:100C60008C01689406C0DA2EEF010E94B706FE01DF
:100C7000E894A5912591359145915591A6F3EF0101
:100C80000E94B604FE019701A801DA9469F7DF908B
:100C9000EF90FF900F911F91CF91DF910895002465
:100CA0000A941616170618060906089500240A94D1
:100CB00012161306140605060895092E0394000C57
:100CC00011F4882352F0BB0F40F4BF2B11F460FFE6
:100CD00004C06F5F7F4F8F4F9F4F089557FD90580F
:100CE000440F551F59F05F3F71F04795880F97FBF0
:100CF000991F61F09F3F79F08795089512161306AA
:100D00001406551FF2CF4695F1DF08C016161706D8
:100D10001806991FF1CF869571056105089408950D
:100D2000E894BB2766277727CB0197F908950E949F
:100D3000150708F48FEF08959B01AC0160E070E0A7
:100D400080E89FE30C943A050E94B7060C945D0678
:100D50000E944F0638F00E94560620F0952311F0AD
:100D60000C941F060C94250611240C9491060E94E5
:100D70006E0670F3959FC1F3950F50E0551F629F6B
:100D8000F001729FBB27F00DB11D639FAA27F00DE4
:100D9000B11DAA1F649F6627B00DA11D661F829F0B
:100DA0002227B00DA11D621F739FB00DA11D621FF0
:100DB000839FA00D611D221F749F3327A00D611D0D
:100DC000231F849F600D211D822F762F6A2F1124EF
:100DD0009F5750409AF0F1F088234AF0EE0FFF1F22
:100DE000BB1F661F771F881F91505040A9F79E3F79
:100DF000510580F00C941F060C9491065F3FE4F3BC
:100E0000983ED4F3869577956795B795F795E795CE
:100E10009F5FC1F7FE2B880F911D9695879597F9D7
:100E200008959B01AC010C94A406990F0008550F7E
:100E3000AA0BE0E8FEEF16161706E807F907C0F060
:100E400012161306E407F50798F0621B730B840B68
:100E5000950B39F40A2661F0232B242B252B21F442
:100E600008950A2609F4A140A6958FEF811D811DE2
:060E70000895F894FFCF85
:00000001FF
