:1000000012C02CC02BC02AC09EC03EC027C026C034
:1000100025C025C023C022C021C020C01FC01EC0D3
:100020001DC01CC01BC011241FBECFE5D4E0DEBF25
:10003000CDBF10E0A0E6B0E0EEE0F7E002C0059032
:100040000D92A236B107D9F720E0A2E6B0E001C0D8
:100050001D92A636B207E1F760D157C3D1CF1F92E8
:100060000F9200905F000F921124CF93DF93CDB7D2
:10007000DEB7109260000000DF91CF910F900092E8
:100080005F000F901F9018951F920F9200905F00D5
:100090000F9211242F933F934F935F938F939F93CE
:1000A000EF93FF93CF93DF9300D01F92CDB7DEB7CE
:1000B00086E490E0FC01808191819A8389838EE4BB
:1000C00090E0FC01808180748B838B81882381F098
:1000D00089819A8190936300809362008EE490E01E
:1000E0002EE430E0F90120812F7BFC01208317C032
:1000F000809162009091630029813A81A901481B97
:10010000590BCA0190936500809364008EE490E0DF
:100110002EE430E0F90120812064FC0120830000FE
:100120000F900F900F90DF91CF91FF91EF919F91E2
:100130008F915F914F913F912F910F9000925F00AF
:100140000F901F9018951F920F9200905F000F92D2
:100150001124CF93DF93CDB7DEB71092610000007A
:10016000DF91CF910F9000925F000F901F90189534
:10017000CF93DF93CDB7DEB781E08093600082E557
:1001800090E0FC0110820000809160008823E1F77C
:100190000000DF91CF910895CF93DF931F92CDB7E9
:1001A000DEB7898381E08093610084E490E03EEFD4
:1001B0002981432F421B242FFC01208300008091C2
:1001C00061008823E1F700000F90DF91CF9108953F
:1001D000CF93DF9300D0CDB7DEB78A838A81829533
:1001E000880F807E898385E390E025E330E0F90184
:1001F0002081277FFC012083000088E290E0FC0141
:100200008081882F90E09C01207233278981882F7C
:1002100090E02817390789F785E390E025E330E07F
:10022000F90120812860FC01208300000F900F90CD
:10023000DF91CF910895CF93DF93CDB7DEB782E3FF
:1002400090E022E330E0F9012081277FFC01208348
:1002500082E390E022E330E0F90120812460FC0198
:10026000208387E290E0FC01108286E290E026E2A3
:1002700030E0F90120812F77FC0120830000DF911D
:10028000CF910895CF93DF93CDB7DEB782E390E0AF
:1002900022E330E0F90120812F7EFC01208388E3F6
:1002A00090E028E330E0F90120812460FC01208304
:1002B00087E290E021E0FC01208386E290E026E2E4
:1002C00030E0F90120812F77FC0120830000DF91CD
:1002D000CF910895CF93DF93CDB7DEB782E390E05F
:1002E00022E330E0F90120812F7DFC01208388E3A7
:1002F00090E028E330E0F90120812260FC012083B6
:1003000086E290E026E230E0F90120812068FC01DD
:1003100020830000DF91CF910895CF93DF93CDB775
:10032000DEB783E590E025E0FC0120838EE490E0D9
:1003300021E8FC01208385E490E023E0FC01208398
:1003400089E590E021E6FC01208388E590E025E640
:10035000FC01208382E590E0FC0110828CE490E0B7
:10036000FC011182108284E490E0FC01108280E59F
:1003700090E020E530E0F90120812860FC01208335
:1003800084E390E02CE0FC01208387E390E026E00A
:10039000FC01208388E390E026E0FC01208381E3D8
:1003A00090E02CE3FC01208382E390E024E0FC0158
:1003B00020837894809164009091650080389E43FA
:1003C00038F0809164009091650081309D4750F035
:1003D00085E390E025E330E0F9012081277FFC01EF
:1003E000208392C18091640090916500813C9D457D
:1003F00008F44BC185E390E025E330E0F90120816A
:100400002860FC01208385E390E025E330E0F901DA
:1004100020812B7FFC01208382E390E022E330E007
:10042000F9012081277FFC01208382E390E022E311
:1004300030E0F90120812F7EFC01208382E390E0EF
:1004400022E330E0F90120812F7DFC01208382E34B
:1004500090E022E330E0F90120812460FC01208358
:1004600088E390E028E330E0F90120812460FC017A
:10047000208388E390E028E330E0F90120812260C6
:10048000FC012083D8DE88E390E028E330E0F90126
:1004900020812B7FFC01208382E390E022E330E087
:1004A000F90120812062FC0120838FE075DE82E368
:1004B00090E022E330E0F90120812F7DFC012083D0
:1004C00084E66ADE81E084DE85E390E025E330E0C7
:1004D000F90120812860FC012083D4DE82E390E0D2
:1004E00022E330E0F90120812B7FFC01208382E3AD
:1004F00090E022E330E0F90120812062FC012083BA
:100500008FE04ADE82E390E022E330E0F9012081CF
:100510002F7DFC01208384E63FDE80E059DE85E309
:1005200090E025E330E0F90120812860FC01208380
:10053000D1DE82E390E022E330E0F90120812B7FDD
:10054000FC01208382E390E022E330E0F901208186
:100550002061FC0120838FE01FDE82E390E022E334
:1005600030E0F90120812F7EFC01208384E614DE37
:1005700081E02EDE85E390E025E330E0F901208183
:100580002860FC01208357DE88E390E028E330E018
:10059000F90120812D7FFC01208382E390E022E39A
:1005A00030E0F90120812061FC0120838FE0F4DD3F
:1005B00082E390E022E330E0F90120812F7EFC010C
:1005C000208384E6E9DD80E003DE85E390E025E337
:1005D00030E0F90120812860FC01208353DE88E3AC
:1005E00090E028E330E0F90120812D7FFC01208399
:1005F00082E390E022E330E0F90120812860FC01F1
:1006000020838FE0C9DD82E390E022E330E0F9014E
:100610002081277FFC01208384E6BEDD81E0D8DDD8
:1006200085E390E025E330E0F90120812860FC01BA
:10063000208350DE88E390E028E330E0F901208158
:100640002B7FFC01208382E390E022E330E0F9017C
:1006500020812860FC0120838FE09EDD82E390E012
:1006600022E330E0F9012081277FFC01208384E62A
:1006700093DD80E0ADDD85E390E025E330E0F90136
:1006800020812860FC01208395CE82E390E022E364
:1006900030E0F9012081277FFC01208382E390E094
:1006A00022E330E0F90120812F7EFC01208382E3E8
:1006B00090E022E330E0F90120812F7DFC012083CE
:1006C00082E390E022E330E0F90120812460FC0124
:1006D000208388E390E028E330E0F9012081246062
:1006E000FC01208388E390E028E330E0F9012081D9
:1006F0002260FC01208385E390E025E330E0F901EE
:0E07000020812460FC01208355CEF894FFCFA9
:02070E000101E7
:00000001FF
